{
  "_format": "hh-sol-artifact-1",
  "contractName": "Shared",
  "sourceName": "contracts/Shared.sol",
  "abi": [
    {
      "anonymous": false,
      "inputs": [
        {
          "indexed": true,
          "internalType": "address",
          "name": "walletId",
          "type": "address"
        },
        {
          "indexed": false,
          "internalType": "string",
          "name": "charityName",
          "type": "string"
        },
        {
          "indexed": false,
          "internalType": "string",
          "name": "description",
          "type": "string"
        }
      ],
      "name": "CharityCreated",
      "type": "event"
    },
    {
      "anonymous": false,
      "inputs": [
        {
          "indexed": true,
          "internalType": "uint256",
          "name": "walletId",
          "type": "uint256"
        },
        {
          "indexed": true,
          "internalType": "string",
          "name": "participant",
          "type": "string"
        },
        {
          "indexed": false,
          "internalType": "uint256",
          "name": "amount",
          "type": "uint256"
        }
      ],
      "name": "FundsAddedToSharedWallet",
      "type": "event"
    },
    {
      "anonymous": false,
      "inputs": [
        {
          "indexed": true,
          "internalType": "uint256",
          "name": "walletId",
          "type": "uint256"
        },
        {
          "indexed": true,
          "internalType": "string",
          "name": "participant",
          "type": "string"
        },
        {
          "indexed": false,
          "internalType": "uint256",
          "name": "amount",
          "type": "uint256"
        }
      ],
      "name": "FundsWithdrawnFromSharedWallet",
      "type": "event"
    },
    {
      "anonymous": false,
      "inputs": [
        {
          "indexed": true,
          "internalType": "uint256",
          "name": "walletId",
          "type": "uint256"
        },
        {
          "indexed": true,
          "internalType": "address",
          "name": "participant",
          "type": "address"
        }
      ],
      "name": "ParticipantAccepted",
      "type": "event"
    },
    {
      "anonymous": false,
      "inputs": [
        {
          "indexed": true,
          "internalType": "uint256",
          "name": "walletId",
          "type": "uint256"
        },
        {
          "indexed": true,
          "internalType": "address",
          "name": "participant",
          "type": "address"
        }
      ],
      "name": "ParticipantRejected",
      "type": "event"
    },
    {
      "anonymous": false,
      "inputs": [
        {
          "indexed": true,
          "internalType": "uint256",
          "name": "walletId",
          "type": "uint256"
        },
        {
          "indexed": true,
          "internalType": "address",
          "name": "participant",
          "type": "address"
        }
      ],
      "name": "ParticipantRemoved",
      "type": "event"
    },
    {
      "anonymous": false,
      "inputs": [
        {
          "indexed": true,
          "internalType": "uint256",
          "name": "walletId",
          "type": "uint256"
        },
        {
          "indexed": true,
          "internalType": "address",
          "name": "participant",
          "type": "address"
        }
      ],
      "name": "ParticipantRequest",
      "type": "event"
    },
    {
      "anonymous": false,
      "inputs": [
        {
          "indexed": true,
          "internalType": "uint256",
          "name": "walletId",
          "type": "uint256"
        },
        {
          "indexed": true,
          "internalType": "address",
          "name": "admin",
          "type": "address"
        },
        {
          "indexed": false,
          "internalType": "uint256",
          "name": "goalAmount",
          "type": "uint256"
        },
        {
          "indexed": false,
          "internalType": "uint256",
          "name": "borrowLimit",
          "type": "uint256"
        },
        {
          "indexed": false,
          "internalType": "address[]",
          "name": "participants",
          "type": "address[]"
        }
      ],
      "name": "SharedWalletCreated",
      "type": "event"
    },
    {
      "inputs": [
        {
          "internalType": "uint256",
          "name": "_walletId",
          "type": "uint256"
        },
        {
          "internalType": "address",
          "name": "_participant",
          "type": "address"
        }
      ],
      "name": "acceptParticipant",
      "outputs": [],
      "stateMutability": "nonpayable",
      "type": "function"
    },
    {
      "inputs": [
        {
          "internalType": "uint256",
          "name": "_walletId",
          "type": "uint256"
        }
      ],
      "name": "addFundsToSharedWallet",
      "outputs": [],
      "stateMutability": "payable",
      "type": "function"
    },
    {
      "inputs": [
        {
          "internalType": "uint256",
          "name": "",
          "type": "uint256"
        }
      ],
      "name": "allTransactions",
      "outputs": [
        {
          "internalType": "string",
          "name": "sender",
          "type": "string"
        },
        {
          "internalType": "string",
          "name": "receiver",
          "type": "string"
        },
        {
          "internalType": "uint256",
          "name": "amount",
          "type": "uint256"
        },
        {
          "internalType": "string",
          "name": "description",
          "type": "string"
        },
        {
          "internalType": "uint256",
          "name": "timestamp",
          "type": "uint256"
        }
      ],
      "stateMutability": "view",
      "type": "function"
    },
    {
      "inputs": [
        {
          "internalType": "uint256",
          "name": "",
          "type": "uint256"
        }
      ],
      "name": "charities",
      "outputs": [
        {
          "internalType": "address",
          "name": "walletId",
          "type": "address"
        },
        {
          "internalType": "string",
          "name": "charityName",
          "type": "string"
        },
        {
          "internalType": "string",
          "name": "description",
          "type": "string"
        }
      ],
      "stateMutability": "view",
      "type": "function"
    },
    {
      "inputs": [
        {
          "internalType": "uint256",
          "name": "",
          "type": "uint256"
        }
      ],
      "name": "charityId",
      "outputs": [
        {
          "internalType": "uint256",
          "name": "",
          "type": "uint256"
        }
      ],
      "stateMutability": "view",
      "type": "function"
    },
    {
      "inputs": [
        {
          "internalType": "string",
          "name": "_name",
          "type": "string"
        },
        {
          "internalType": "string",
          "name": "_description",
          "type": "string"
        }
      ],
      "name": "createOrgCharity",
      "outputs": [],
      "stateMutability": "nonpayable",
      "type": "function"
    },
    {
      "inputs": [
        {
          "internalType": "uint256",
          "name": "_goalAmount",
          "type": "uint256"
        },
        {
          "internalType": "uint256",
          "name": "_borrowLimit",
          "type": "uint256"
        },
        {
          "internalType": "string",
          "name": "_walname",
          "type": "string"
        }
      ],
      "name": "createSharedWallet",
      "outputs": [],
      "stateMutability": "nonpayable",
      "type": "function"
    },
    {
      "inputs": [
        {
          "internalType": "uint256",
          "name": "",
          "type": "uint256"
        }
      ],
      "name": "existingUsernames",
      "outputs": [
        {
          "internalType": "string",
          "name": "",
          "type": "string"
        }
      ],
      "stateMutability": "view",
      "type": "function"
    },
    {
      "inputs": [],
      "name": "getAllCharities",
      "outputs": [
        {
          "components": [
            {
              "internalType": "address",
              "name": "walletId",
              "type": "address"
            },
            {
              "internalType": "string",
              "name": "charityName",
              "type": "string"
            },
            {
              "internalType": "string",
              "name": "description",
              "type": "string"
            }
          ],
          "internalType": "struct Shared.Charity[]",
          "name": "",
          "type": "tuple[]"
        }
      ],
      "stateMutability": "view",
      "type": "function"
    },
    {
      "inputs": [],
      "name": "getAllSharedWallets",
      "outputs": [
        {
          "components": [
            {
              "internalType": "uint256",
              "name": "walletId",
              "type": "uint256"
            },
            {
              "internalType": "string",
              "name": "walletName",
              "type": "string"
            },
            {
              "internalType": "uint256",
              "name": "walletBalance",
              "type": "uint256"
            },
            {
              "internalType": "address",
              "name": "admin",
              "type": "address"
            },
            {
              "internalType": "uint256",
              "name": "goalAmount",
              "type": "uint256"
            },
            {
              "internalType": "uint256",
              "name": "borrowLimit",
              "type": "uint256"
            },
            {
              "internalType": "address[]",
              "name": "participants",
              "type": "address[]"
            },
            {
              "internalType": "address[]",
              "name": "participantRequests",
              "type": "address[]"
            },
            {
              "internalType": "uint256[]",
              "name": "transactionIndices",
              "type": "uint256[]"
            }
          ],
          "internalType": "struct Shared.SharedWallet[]",
          "name": "",
          "type": "tuple[]"
        }
      ],
      "stateMutability": "view",
      "type": "function"
    },
    {
      "inputs": [
        {
          "internalType": "uint256",
          "name": "_walletId",
          "type": "uint256"
        }
      ],
      "name": "getBalance",
      "outputs": [
        {
          "internalType": "uint256",
          "name": "",
          "type": "uint256"
        }
      ],
      "stateMutability": "view",
      "type": "function"
    },
    {
      "inputs": [],
      "name": "getName",
      "outputs": [
        {
          "internalType": "string",
          "name": "",
          "type": "string"
        }
      ],
      "stateMutability": "view",
      "type": "function"
    },
    {
      "inputs": [],
      "name": "getUsername",
      "outputs": [
        {
          "internalType": "string",
          "name": "",
          "type": "string"
        }
      ],
      "stateMutability": "view",
      "type": "function"
    },
    {
      "inputs": [
        {
          "internalType": "uint256",
          "name": "_walletId",
          "type": "uint256"
        }
      ],
      "name": "getWalName",
      "outputs": [
        {
          "internalType": "string",
          "name": "",
          "type": "string"
        }
      ],
      "stateMutability": "view",
      "type": "function"
    },
    {
      "inputs": [
        {
          "internalType": "uint256",
          "name": "_walletId",
          "type": "uint256"
        }
      ],
      "name": "getWalletTransactions",
      "outputs": [
        {
          "components": [
            {
              "internalType": "string",
              "name": "sender",
              "type": "string"
            },
            {
              "internalType": "string",
              "name": "receiver",
              "type": "string"
            },
            {
              "internalType": "uint256",
              "name": "amount",
              "type": "uint256"
            },
            {
              "internalType": "string",
              "name": "description",
              "type": "string"
            },
            {
              "internalType": "uint256",
              "name": "timestamp",
              "type": "uint256"
            }
          ],
          "internalType": "struct Shared.Transaction[]",
          "name": "",
          "type": "tuple[]"
        }
      ],
      "stateMutability": "view",
      "type": "function"
    },
    {
      "inputs": [
        {
          "internalType": "address",
          "name": "",
          "type": "address"
        }
      ],
      "name": "hasCreatedCharity",
      "outputs": [
        {
          "internalType": "bool",
          "name": "",
          "type": "bool"
        }
      ],
      "stateMutability": "view",
      "type": "function"
    },
    {
      "inputs": [
        {
          "internalType": "uint256",
          "name": "_walletId",
          "type": "uint256"
        },
        {
          "internalType": "address",
          "name": "_participant",
          "type": "address"
        }
      ],
      "name": "isParticipant",
      "outputs": [
        {
          "internalType": "bool",
          "name": "",
          "type": "bool"
        }
      ],
      "stateMutability": "view",
      "type": "function"
    },
    {
      "inputs": [
        {
          "internalType": "address",
          "name": "",
          "type": "address"
        }
      ],
      "name": "name",
      "outputs": [
        {
          "internalType": "string",
          "name": "",
          "type": "string"
        }
      ],
      "stateMutability": "view",
      "type": "function"
    },
    {
      "inputs": [
        {
          "internalType": "uint256",
          "name": "_walletId",
          "type": "uint256"
        },
        {
          "internalType": "address",
          "name": "_participant",
          "type": "address"
        }
      ],
      "name": "rejectParticipant",
      "outputs": [],
      "stateMutability": "nonpayable",
      "type": "function"
    },
    {
      "inputs": [
        {
          "internalType": "uint256",
          "name": "_walletId",
          "type": "uint256"
        },
        {
          "internalType": "address",
          "name": "_participant",
          "type": "address"
        }
      ],
      "name": "removeParticipant",
      "outputs": [],
      "stateMutability": "nonpayable",
      "type": "function"
    },
    {
      "inputs": [
        {
          "internalType": "uint256",
          "name": "_walletId",
          "type": "uint256"
        }
      ],
      "name": "requestToJoin",
      "outputs": [],
      "stateMutability": "nonpayable",
      "type": "function"
    },
    {
      "inputs": [
        {
          "internalType": "string",
          "name": "_name",
          "type": "string"
        }
      ],
      "name": "setName",
      "outputs": [],
      "stateMutability": "nonpayable",
      "type": "function"
    },
    {
      "inputs": [
        {
          "internalType": "string",
          "name": "_username",
          "type": "string"
        }
      ],
      "name": "setUsername",
      "outputs": [],
      "stateMutability": "nonpayable",
      "type": "function"
    },
    {
      "inputs": [
        {
          "internalType": "uint256",
          "name": "",
          "type": "uint256"
        }
      ],
      "name": "sharedWallets",
      "outputs": [
        {
          "internalType": "uint256",
          "name": "walletId",
          "type": "uint256"
        },
        {
          "internalType": "string",
          "name": "walletName",
          "type": "string"
        },
        {
          "internalType": "uint256",
          "name": "walletBalance",
          "type": "uint256"
        },
        {
          "internalType": "address",
          "name": "admin",
          "type": "address"
        },
        {
          "internalType": "uint256",
          "name": "goalAmount",
          "type": "uint256"
        },
        {
          "internalType": "uint256",
          "name": "borrowLimit",
          "type": "uint256"
        }
      ],
      "stateMutability": "view",
      "type": "function"
    },
    {
      "inputs": [
        {
          "internalType": "address",
          "name": "",
          "type": "address"
        }
      ],
      "name": "username",
      "outputs": [
        {
          "internalType": "string",
          "name": "",
          "type": "string"
        }
      ],
      "stateMutability": "view",
      "type": "function"
    },
    {
      "inputs": [
        {
          "internalType": "uint256",
          "name": "",
          "type": "uint256"
        }
      ],
      "name": "walletIdExists",
      "outputs": [
        {
          "internalType": "bool",
          "name": "",
          "type": "bool"
        }
      ],
      "stateMutability": "view",
      "type": "function"
    },
    {
      "inputs": [
        {
          "internalType": "uint256",
          "name": "_walletId",
          "type": "uint256"
        },
        {
          "internalType": "uint256",
          "name": "_amount",
          "type": "uint256"
        },
        {
          "internalType": "string",
          "name": "_description",
          "type": "string"
        }
      ],
      "name": "withdrawFundsFromSharedWallet",
      "outputs": [],
      "stateMutability": "nonpayable",
      "type": "function"
    }
  ],
  "bytecode": "0x608060405234801561001057600080fd5b5061562680620000216000396000f3fe60806040526004361061019c5760003560e01c806384022767116100ec578063d7ff07141161008a578063ed59313a11610064578063ed59313a14610651578063f85a933c1461067a578063fb709d2e14610696578063fd57959f146106d55761019c565b8063d7ff071414610591578063dd385cf2146105d2578063ec0106ac1461060f5761019c565b8063ba098266116100c6578063ba098266146104d9578063bc00370014610516578063c4434b851461053f578063c47f0027146105685761019c565b8063840227671461045c578063ab1351e514610485578063b5bbd279146104ae5761019c565b80633688299c11610159578063681f3e6d11610133578063681f3e6d1461038e578063758d9b89146103b95780637943e51c146103f65780637a175f40146104335761019c565b80633688299c146102e9578063423b8e881461031457806348c7cc81146103515761019c565b806301984892146101a15780630610a7a2146101de57806317d7de7c1461021b5780631ca125cf146102465780631e0104391461028357806325c93ab1146102c0575b600080fd5b3480156101ad57600080fd5b506101c860048036038101906101c39190613826565b6106fe565b6040516101d591906138e3565b60405180910390f35b3480156101ea57600080fd5b5061020560048036038101906102009190613826565b61079e565b60405161021291906138e3565b60405180910390f35b34801561022757600080fd5b5061023061083e565b60405161023d91906138e3565b60405180910390f35b34801561025257600080fd5b5061026d6004803603810190610268919061393b565b61090d565b60405161027a91906138e3565b60405180910390f35b34801561028f57600080fd5b506102aa60048036038101906102a5919061393b565b6109d2565b6040516102b79190613977565b60405180910390f35b3480156102cc57600080fd5b506102e760048036038101906102e29190613ac7565b610a6a565b005b3480156102f557600080fd5b506102fe610e3f565b60405161030b9190613e98565b60405180910390f35b34801561032057600080fd5b5061033b6004803603810190610336919061393b565b611123565b6040516103489190613ed5565b60405180910390f35b34801561035d57600080fd5b506103786004803603810190610373919061393b565b611143565b6040516103859190614036565b60405180910390f35b34801561039a57600080fd5b506103a36114e1565b6040516103b091906138e3565b60405180910390f35b3480156103c557600080fd5b506103e060048036038101906103db9190614058565b6115b0565b6040516103ed9190613ed5565b60405180910390f35b34801561040257600080fd5b5061041d6004803603810190610418919061393b565b6116b0565b60405161042a91906138e3565b60405180910390f35b34801561043f57600080fd5b5061045a60048036038101906104559190614058565b61175c565b005b34801561046857600080fd5b50610483600480360381019061047e919061393b565b6118dc565b005b34801561049157600080fd5b506104ac60048036038101906104a79190613ac7565b611aab565b005b3480156104ba57600080fd5b506104c3611fbe565b6040516104d091906141b1565b60405180910390f35b3480156104e557600080fd5b5061050060048036038101906104fb9190613826565b612197565b60405161050d9190613ed5565b60405180910390f35b34801561052257600080fd5b5061053d60048036038101906105389190614058565b6121b7565b005b34801561054b57600080fd5b5061056660048036038101906105619190614058565b6123bd565b005b34801561057457600080fd5b5061058f600480360381019061058a91906141d3565b61253d565b005b34801561059d57600080fd5b506105b860048036038101906105b3919061393b565b61258d565b6040516105c995949392919061421c565b60405180910390f35b3480156105de57600080fd5b506105f960048036038101906105f4919061393b565b61276b565b6040516106069190613977565b60405180910390f35b34801561061b57600080fd5b506106366004803603810190610631919061393b565b612783565b60405161064896959493929190614293565b60405180910390f35b34801561065d57600080fd5b50610678600480360381019061067391906141d3565b612877565b005b610694600480360381019061068f919061393b565b6129d3565b005b3480156106a257600080fd5b506106bd60048036038101906106b8919061393b565b612e63565b6040516106cc939291906142fb565b60405180910390f35b3480156106e157600080fd5b506106fc60048036038101906106f79190614340565b612fcd565b005b6005602052806000526040600020600091509050805461071d906143e7565b80601f0160208091040260200160405190810160405280929190818152602001828054610749906143e7565b80156107965780601f1061076b57610100808354040283529160200191610796565b820191906000526020600020905b81548152906001019060200180831161077957829003601f168201915b505050505081565b600460205280600052604060002060009150905080546107bd906143e7565b80601f01602080910402602001604051908101604052809291908181526020018280546107e9906143e7565b80156108365780601f1061080b57610100808354040283529160200191610836565b820191906000526020600020905b81548152906001019060200180831161081957829003601f168201915b505050505081565b6060600560003373ffffffffffffffffffffffffffffffffffffffff1673ffffffffffffffffffffffffffffffffffffffff168152602001908152602001600020805461088a906143e7565b80601f01602080910402602001604051908101604052809291908181526020018280546108b6906143e7565b80156109035780601f106108d857610100808354040283529160200191610903565b820191906000526020600020905b8154815290600101906020018083116108e657829003601f168201915b5050505050905090565b6060600061091a836131dd565b9050600081815481106109305761092f614418565b5b9060005260206000209060090201600101805461094c906143e7565b80601f0160208091040260200160405190810160405280929190818152602001828054610978906143e7565b80156109c55780601f1061099a576101008083540402835291602001916109c5565b820191906000526020600020905b8154815290600101906020018083116109a857829003601f168201915b5050505050915050919050565b6000806109de836131dd565b90506109ea83336115b0565b610a29576040517f08c379a0000000000000000000000000000000000000000000000000000000008152600401610a20906144b9565b60405180910390fd5b670de0b6b3a764000060008281548110610a4657610a45614418565b5b906000526020600020906009020160020154610a629190614537565b915050919050565b60008311610aad576040517f08c379a0000000000000000000000000000000000000000000000000000000008152600401610aa4906145da565b60405180910390fd5b6000821015610af1576040517f08c379a0000000000000000000000000000000000000000000000000000000008152600401610ae89061466c565b60405180910390fd5b6000610afb61327b565b90506000600167ffffffffffffffff811115610b1a57610b1961399c565b5b604051908082528060200260200182016040528015610b485781602001602082028036833780820191505090505b5090503381600081518110610b6057610b5f614418565b5b602002602001019073ffffffffffffffffffffffffffffffffffffffff16908173ffffffffffffffffffffffffffffffffffffffff16815250506000604051806101200160405280848152602001858152602001600081526020013373ffffffffffffffffffffffffffffffffffffffff168152602001670de0b6b3a764000088610beb919061468c565b8152602001670de0b6b3a764000087610c04919061468c565b8152602001838152602001600067ffffffffffffffff811115610c2a57610c2961399c565b5b604051908082528060200260200182016040528015610c585781602001602082028036833780820191505090505b508152602001600067ffffffffffffffff811115610c7957610c7861399c565b5b604051908082528060200260200182016040528015610ca75781602001602082028036833780820191505090505b5081525090506000819080600181540180825580915050600190039060005260206000209060090201600090919091909150600082015181600001556020820151816001019081610cf8919061487a565b506040820151816002015560608201518160030160006101000a81548173ffffffffffffffffffffffffffffffffffffffff021916908373ffffffffffffffffffffffffffffffffffffffff1602179055506080820151816004015560a0820151816005015560c0820151816006019080519060200190610d7a929190613691565b5060e0820151816007019080519060200190610d97929190613691565b50610100820151816008019080519060200190610db592919061371b565b50505060016003600085815260200190815260200160002060006101000a81548160ff0219169083151502179055503373ffffffffffffffffffffffffffffffffffffffff16837fbb22188d95efa8c4f325d45db9224a8e37daca69776a24623d5851833076f6ed888886604051610e2f939291906149bb565b60405180910390a3505050505050565b60606000805480602002602001604051908101604052809291908181526020016000905b8282101561111a57838290600052602060002090600902016040518061012001604052908160008201548152602001600182018054610ea1906143e7565b80601f0160208091040260200160405190810160405280929190818152602001828054610ecd906143e7565b8015610f1a5780601f10610eef57610100808354040283529160200191610f1a565b820191906000526020600020905b815481529060010190602001808311610efd57829003601f168201915b50505050508152602001600282015481526020016003820160009054906101000a900473ffffffffffffffffffffffffffffffffffffffff1673ffffffffffffffffffffffffffffffffffffffff1673ffffffffffffffffffffffffffffffffffffffff16815260200160048201548152602001600582015481526020016006820180548060200260200160405190810160405280929190818152602001828054801561101c57602002820191906000526020600020905b8160009054906101000a900473ffffffffffffffffffffffffffffffffffffffff1673ffffffffffffffffffffffffffffffffffffffff1681526020019060010190808311610fd2575b50505050508152602001600782018054806020026020016040519081016040528092919081815260200182805480156110aa57602002820191906000526020600020905b8160009054906101000a900473ffffffffffffffffffffffffffffffffffffffff1673ffffffffffffffffffffffffffffffffffffffff1681526020019060010190808311611060575b505050505081526020016008820180548060200260200160405190810160405280929190818152602001828054801561110257602002820191906000526020600020905b8154815260200190600101908083116110ee575b50505050508152505081526020019060010190610e63565b50505050905090565b60036020528060005260406000206000915054906101000a900460ff1681565b60606003600083815260200190815260200160002060009054906101000a900460ff166111a5576040517f08c379a000000000000000000000000000000000000000000000000000000000815260040161119c90614a6b565b60405180910390fd5b60006111b0836131dd565b905060008082815481106111c7576111c6614418565b5b906000526020600020906009020160080180548060200260200160405190810160405280929190818152602001828054801561122257602002820191906000526020600020905b81548152602001906001019080831161120e575b5050505050905060008151905060008167ffffffffffffffff81111561124b5761124a61399c565b5b60405190808252806020026020018201604052801561128457816020015b611271613768565b8152602001906001900390816112695790505b50905060005b828110156114d45760018482815181106112a7576112a6614418565b5b6020026020010151815481106112c0576112bf614418565b5b90600052602060002090600502016040518060a00160405290816000820180546112e9906143e7565b80601f0160208091040260200160405190810160405280929190818152602001828054611315906143e7565b80156113625780601f1061133757610100808354040283529160200191611362565b820191906000526020600020905b81548152906001019060200180831161134557829003601f168201915b5050505050815260200160018201805461137b906143e7565b80601f01602080910402602001604051908101604052809291908181526020018280546113a7906143e7565b80156113f45780601f106113c9576101008083540402835291602001916113f4565b820191906000526020600020905b8154815290600101906020018083116113d757829003601f168201915b5050505050815260200160028201548152602001600382018054611417906143e7565b80601f0160208091040260200160405190810160405280929190818152602001828054611443906143e7565b80156114905780601f1061146557610100808354040283529160200191611490565b820191906000526020600020905b81548152906001019060200180831161147357829003601f168201915b505050505081526020016004820154815250508282815181106114b6576114b5614418565b5b602002602001018190525080806114cc90614a8b565b91505061128a565b5080945050505050919050565b6060600460003373ffffffffffffffffffffffffffffffffffffffff1673ffffffffffffffffffffffffffffffffffffffff168152602001908152602001600020805461152d906143e7565b80601f0160208091040260200160405190810160405280929190818152602001828054611559906143e7565b80156115a65780601f1061157b576101008083540402835291602001916115a6565b820191906000526020600020905b81548152906001019060200180831161158957829003601f168201915b5050505050905090565b6000806115bc846131dd565b905060005b600082815481106115d5576115d4614418565b5b9060005260206000209060090201600601805490508110156116a3578373ffffffffffffffffffffffffffffffffffffffff166000838154811061161c5761161b614418565b5b9060005260206000209060090201600601828154811061163f5761163e614418565b5b9060005260206000200160009054906101000a900473ffffffffffffffffffffffffffffffffffffffff1673ffffffffffffffffffffffffffffffffffffffff1603611690576001925050506116aa565b808061169b90614a8b565b9150506115c1565b5060009150505b92915050565b600881815481106116c057600080fd5b9060005260206000200160009150905080546116db906143e7565b80601f0160208091040260200160405190810160405280929190818152602001828054611707906143e7565b80156117545780601f1061172957610100808354040283529160200191611754565b820191906000526020600020905b81548152906001019060200180831161173757829003601f168201915b505050505081565b600082815481106117705761176f614418565b5b906000526020600020906009020160030160009054906101000a900473ffffffffffffffffffffffffffffffffffffffff1673ffffffffffffffffffffffffffffffffffffffff163373ffffffffffffffffffffffffffffffffffffffff161461180f576040517f08c379a000000000000000000000000000000000000000000000000000000000815260040161180690614b45565b60405180910390fd5b6118198282613334565b611858576040517f08c379a000000000000000000000000000000000000000000000000000000000815260040161184f90614bb1565b60405180910390fd5b6000611863836131dd565b90506118936000828154811061187c5761187b614418565b5b906000526020600020906009020160070183613434565b8173ffffffffffffffffffffffffffffffffffffffff16837f8903f797b9477780cd04a7e575d254f82d9ebb89d859f46f60604c575f2ba27e60405160405180910390a3505050565b6003600082815260200190815260200160002060009054906101000a900460ff1661193c576040517f08c379a000000000000000000000000000000000000000000000000000000000815260040161193390614a6b565b60405180910390fd5b61194681336115b0565b15611986576040517f08c379a000000000000000000000000000000000000000000000000000000000815260040161197d90614c1d565b60405180910390fd5b6119908133613334565b156119d0576040517f08c379a00000000000000000000000000000000000000000000000000000000081526004016119c790614c89565b60405180910390fd5b60006119db826131dd565b9050600081815481106119f1576119f0614418565b5b9060005260206000209060090201600701339080600181540180825580915050600190039060005260206000200160009091909190916101000a81548173ffffffffffffffffffffffffffffffffffffffff021916908373ffffffffffffffffffffffffffffffffffffffff1602179055503373ffffffffffffffffffffffffffffffffffffffff16827f0e1d9310fd77f81b5bf5dbde6ee0c770054dd4f36103e23a85db7ac00f73d41360405160405180910390a35050565b6000611ab6846131dd565b90506003600085815260200190815260200160002060009054906101000a900460ff16611b18576040517f08c379a0000000000000000000000000000000000000000000000000000000008152600401611b0f90614a6b565b60405180910390fd5b611b2284336115b0565b611b61576040517f08c379a0000000000000000000000000000000000000000000000000000000008152600401611b5890614d1b565b60405180910390fd5b60008181548110611b7557611b74614418565b5b906000526020600020906009020160050154670de0b6b3a764000084611b9b919061468c565b1115611bdc576040517f08c379a0000000000000000000000000000000000000000000000000000000008152600401611bd390614dad565b60405180910390fd5b60008181548110611bf057611bef614418565b5b906000526020600020906009020160020154670de0b6b3a764000084611c16919061468c565b1115611c57576040517f08c379a0000000000000000000000000000000000000000000000000000000008152600401611c4e90614e3f565b60405180910390fd5b6000670de0b6b3a764000084611c6d919061468c565b90508060008381548110611c8457611c83614418565b5b90600052602060002090600902016002016000828254611ca49190614e5f565b925050819055508060008381548110611cc057611cbf614418565b5b90600052602060002090600902016004016000828254611ce09190614e93565b925050819055503373ffffffffffffffffffffffffffffffffffffffff166108fc829081150290604051600060405180830381858888f19350505050158015611d2d573d6000803e3d6000fd5b506000600180549050905060016040518060a001604052806040518060400160405280600d81526020017f7368617265642077616c6c6574000000000000000000000000000000000000008152508152602001600460003373ffffffffffffffffffffffffffffffffffffffff1673ffffffffffffffffffffffffffffffffffffffff1681526020019081526020016000208054611dca906143e7565b80601f0160208091040260200160405190810160405280929190818152602001828054611df6906143e7565b8015611e435780601f10611e1857610100808354040283529160200191611e43565b820191906000526020600020905b815481529060010190602001808311611e2657829003601f168201915b505050505081526020018481526020018681526020014281525090806001815401808255809150506001900390600052602060002090600502016000909190919091506000820151816000019081611e9b919061487a565b506020820151816001019081611eb1919061487a565b50604082015181600201556060820151816003019081611ed1919061487a565b5060808201518160040155505060008381548110611ef257611ef1614418565b5b9060005260206000209060090201600801819080600181540180825580915050600190039060005260206000200160009091909190915055600460003373ffffffffffffffffffffffffffffffffffffffff1673ffffffffffffffffffffffffffffffffffffffff168152602001908152602001600020604051611f769190614f55565b6040518091039020867f1da1e862b49d474681f4eaecdcb8e1ae3bb314cf38ac7b1726d8eb3e8618b31084604051611fae9190613977565b60405180910390a3505050505050565b60606002805480602002602001604051908101604052809291908181526020016000905b8282101561218e57838290600052602060002090600302016040518060600160405290816000820160009054906101000a900473ffffffffffffffffffffffffffffffffffffffff1673ffffffffffffffffffffffffffffffffffffffff1673ffffffffffffffffffffffffffffffffffffffff16815260200160018201805461206b906143e7565b80601f0160208091040260200160405190810160405280929190818152602001828054612097906143e7565b80156120e45780601f106120b9576101008083540402835291602001916120e4565b820191906000526020600020905b8154815290600101906020018083116120c757829003601f168201915b505050505081526020016002820180546120fd906143e7565b80601f0160208091040260200160405190810160405280929190818152602001828054612129906143e7565b80156121765780601f1061214b57610100808354040283529160200191612176565b820191906000526020600020905b81548152906001019060200180831161215957829003601f168201915b50505050508152505081526020019060010190611fe2565b50505050905090565b60076020528060005260406000206000915054906101000a900460ff1681565b60006121c2836131dd565b9050600081815481106121d8576121d7614418565b5b906000526020600020906009020160030160009054906101000a900473ffffffffffffffffffffffffffffffffffffffff1673ffffffffffffffffffffffffffffffffffffffff163373ffffffffffffffffffffffffffffffffffffffff1614612277576040517f08c379a000000000000000000000000000000000000000000000000000000000815260040161226e90614fde565b60405180910390fd5b6122818383613334565b6122c0576040517f08c379a00000000000000000000000000000000000000000000000000000000081526004016122b790614bb1565b60405180910390fd5b600081815481106122d4576122d3614418565b5b9060005260206000209060090201600601829080600181540180825580915050600190039060005260206000200160009091909190916101000a81548173ffffffffffffffffffffffffffffffffffffffff021916908373ffffffffffffffffffffffffffffffffffffffff1602179055506123746000828154811061235d5761235c614418565b5b906000526020600020906009020160070183613434565b8173ffffffffffffffffffffffffffffffffffffffff16837f55db954dfe09b91087e0919cb7fb06e3642e0d393ed967f4192c27de59293c7260405160405180910390a3505050565b60006123c8836131dd565b9050600081815481106123de576123dd614418565b5b906000526020600020906009020160030160009054906101000a900473ffffffffffffffffffffffffffffffffffffffff1673ffffffffffffffffffffffffffffffffffffffff163373ffffffffffffffffffffffffffffffffffffffff161461247d576040517f08c379a000000000000000000000000000000000000000000000000000000000815260040161247490615070565b60405180910390fd5b61248783836115b0565b6124c6576040517f08c379a00000000000000000000000000000000000000000000000000000000081526004016124bd906150dc565b60405180910390fd5b6124f4600082815481106124dd576124dc614418565b5b906000526020600020906009020160060183613434565b8173ffffffffffffffffffffffffffffffffffffffff16837fcef8fac05afb87995942422eac900de6af11a555d80d075340af81db492119fe60405160405180910390a3505050565b80600560003373ffffffffffffffffffffffffffffffffffffffff1673ffffffffffffffffffffffffffffffffffffffff1681526020019081526020016000209081612589919061487a565b5050565b6001818154811061259d57600080fd5b90600052602060002090600502016000915090508060000180546125c0906143e7565b80601f01602080910402602001604051908101604052809291908181526020018280546125ec906143e7565b80156126395780601f1061260e57610100808354040283529160200191612639565b820191906000526020600020905b81548152906001019060200180831161261c57829003601f168201915b50505050509080600101805461264e906143e7565b80601f016020809104026020016040519081016040528092919081815260200182805461267a906143e7565b80156126c75780601f1061269c576101008083540402835291602001916126c7565b820191906000526020600020905b8154815290600101906020018083116126aa57829003601f168201915b5050505050908060020154908060030180546126e2906143e7565b80601f016020809104026020016040519081016040528092919081815260200182805461270e906143e7565b801561275b5780601f106127305761010080835404028352916020019161275b565b820191906000526020600020905b81548152906001019060200180831161273e57829003601f168201915b5050505050908060040154905085565b60066020528060005260406000206000915090505481565b6000818154811061279357600080fd5b90600052602060002090600902016000915090508060000154908060010180546127bc906143e7565b80601f01602080910402602001604051908101604052809291908181526020018280546127e8906143e7565b80156128355780601f1061280a57610100808354040283529160200191612835565b820191906000526020600020905b81548152906001019060200180831161281857829003601f168201915b5050505050908060020154908060030160009054906101000a900473ffffffffffffffffffffffffffffffffffffffff16908060040154908060050154905086565b6000600460003373ffffffffffffffffffffffffffffffffffffffff1673ffffffffffffffffffffffffffffffffffffffff16815260200190815260200160002080546128c3906143e7565b905014612905576040517f08c379a00000000000000000000000000000000000000000000000000000000081526004016128fc90615148565b60405180910390fd5b61290e81613614565b1561294e576040517f08c379a0000000000000000000000000000000000000000000000000000000008152600401612945906151da565b60405180910390fd5b600881908060018154018082558091505060019003906000526020600020016000909190919091509081612982919061487a565b5080600460003373ffffffffffffffffffffffffffffffffffffffff1673ffffffffffffffffffffffffffffffffffffffff16815260200190815260200160002090816129cf919061487a565b5050565b60006129de826131dd565b90506003600083815260200190815260200160002060009054906101000a900460ff16612a40576040517f08c379a0000000000000000000000000000000000000000000000000000000008152600401612a3790614a6b565b60405180910390fd5b612a4a82336115b0565b612a89576040517f08c379a0000000000000000000000000000000000000000000000000000000008152600401612a8090615246565b60405180910390fd5b60003411612acc576040517f08c379a0000000000000000000000000000000000000000000000000000000008152600401612ac3906152b2565b60405180910390fd5b3460008281548110612ae157612ae0614418565b5b90600052602060002090600902016002016000828254612b019190614e93565b925050819055503460008281548110612b1d57612b1c614418565b5b9060005260206000209060090201600401541115612b76573460008281548110612b4a57612b49614418565b5b90600052602060002090600902016004016000828254612b6a9190614e5f565b92505081905550612ba1565b6000808281548110612b8b57612b8a614418565b5b9060005260206000209060090201600401819055505b6000600180549050905060016040518060a00160405280600460003373ffffffffffffffffffffffffffffffffffffffff1673ffffffffffffffffffffffffffffffffffffffff1681526020019081526020016000208054612c02906143e7565b80601f0160208091040260200160405190810160405280929190818152602001828054612c2e906143e7565b8015612c7b5780601f10612c5057610100808354040283529160200191612c7b565b820191906000526020600020905b815481529060010190602001808311612c5e57829003601f168201915b505050505081526020016040518060400160405280600d81526020017f7368617265642077616c6c65740000000000000000000000000000000000000081525081526020013481526020016040518060400160405280601c81526020017f46756e647320616464656420746f207368617265642077616c6c65740000000081525081526020014281525090806001815401808255809150506001900390600052602060002090600502016000909190919091506000820151816000019081612d43919061487a565b506020820151816001019081612d59919061487a565b50604082015181600201556060820151816003019081612d79919061487a565b5060808201518160040155505060008281548110612d9a57612d99614418565b5b9060005260206000209060090201600801819080600181540180825580915050600190039060005260206000200160009091909190915055600460003373ffffffffffffffffffffffffffffffffffffffff1673ffffffffffffffffffffffffffffffffffffffff168152602001908152602001600020604051612e1e9190614f55565b6040518091039020837f15b3997472c689f4d1336348cbf0980da653dddde6a52fa7e787650c4f3ec7c934604051612e569190613977565b60405180910390a3505050565b60028181548110612e7357600080fd5b90600052602060002090600302016000915090508060000160009054906101000a900473ffffffffffffffffffffffffffffffffffffffff1690806001018054612ebc906143e7565b80601f0160208091040260200160405190810160405280929190818152602001828054612ee8906143e7565b8015612f355780601f10612f0a57610100808354040283529160200191612f35565b820191906000526020600020905b815481529060010190602001808311612f1857829003601f168201915b505050505090806002018054612f4a906143e7565b80601f0160208091040260200160405190810160405280929190818152602001828054612f76906143e7565b8015612fc35780601f10612f9857610100808354040283529160200191612fc3565b820191906000526020600020905b815481529060010190602001808311612fa657829003601f168201915b5050505050905083565b600760003373ffffffffffffffffffffffffffffffffffffffff1673ffffffffffffffffffffffffffffffffffffffff16815260200190815260200160002060009054906101000a900460ff161561305a576040517f08c379a00000000000000000000000000000000000000000000000000000000081526004016130519061531e565b60405180910390fd5b600060405180606001604052803373ffffffffffffffffffffffffffffffffffffffff168152602001848152602001838152509050600281908060018154018082558091505060019003906000526020600020906003020160009091909190915060008201518160000160006101000a81548173ffffffffffffffffffffffffffffffffffffffff021916908373ffffffffffffffffffffffffffffffffffffffff1602179055506020820151816001019081613117919061487a565b50604082015181600201908161312d919061487a565b5050506001600760003373ffffffffffffffffffffffffffffffffffffffff1673ffffffffffffffffffffffffffffffffffffffff16815260200190815260200160002060006101000a81548160ff0219169083151502179055503373ffffffffffffffffffffffffffffffffffffffff167fd98e142226aaa094e0d82c09885e86172e376383ae815a4b512a594ff762bb5684846040516131d092919061533e565b60405180910390a2505050565b600080600090505b60008054905081101561323a57826000828154811061320757613206614418565b5b906000526020600020906009020160000154036132275780915050613276565b808061323290614a8b565b9150506131e5565b506040517f08c379a000000000000000000000000000000000000000000000000000000000815260040161326d906153c1565b60405180910390fd5b919050565b600080444260014361328d9190614e5f565b406040516020016132a09392919061542d565b6040516020818303038152906040528051906020012060001c90506103e8612328826132cc919061546a565b6132d69190614e93565b90505b6003600082815260200190815260200160002060009054906101000a900460ff161561332d576103e86123286001836133129190614e93565b61331c919061546a565b6133269190614e93565b90506132d9565b8091505090565b600080613340846131dd565b905060005b6000828154811061335957613358614418565b5b906000526020600020906009020160070180549050811015613427578373ffffffffffffffffffffffffffffffffffffffff16600083815481106133a05761339f614418565b5b906000526020600020906009020160070182815481106133c3576133c2614418565b5b9060005260206000200160009054906101000a900473ffffffffffffffffffffffffffffffffffffffff1673ffffffffffffffffffffffffffffffffffffffff16036134145760019250505061342e565b808061341f90614a8b565b915050613345565b5060009150505b92915050565b60005b82805490508110156135d4578173ffffffffffffffffffffffffffffffffffffffff1683828154811061346d5761346c614418565b5b9060005260206000200160009054906101000a900473ffffffffffffffffffffffffffffffffffffffff1673ffffffffffffffffffffffffffffffffffffffff16036135c157600183805490506134c49190614e5f565b8110156135755782600184805490506134dd9190614e5f565b815481106134ee576134ed614418565b5b9060005260206000200160009054906101000a900473ffffffffffffffffffffffffffffffffffffffff1683828154811061352c5761352b614418565b5b9060005260206000200160006101000a81548173ffffffffffffffffffffffffffffffffffffffff021916908373ffffffffffffffffffffffffffffffffffffffff1602179055505b828054806135865761358561549b565b5b6001900381819060005260206000200160006101000a81549073ffffffffffffffffffffffffffffffffffffffff0219169055905550613610565b80806135cc90614a8b565b915050613437565b506040517f08c379a000000000000000000000000000000000000000000000000000000000815260040161360790615516565b60405180910390fd5b5050565b600080600090505b6008805490508110156136865782805190602001206008828154811061364557613644614418565b5b9060005260206000200160405161365c91906155d9565b60405180910390200361367357600191505061368c565b808061367e90614a8b565b91505061361c565b50600090505b919050565b82805482825590600052602060002090810192821561370a579160200282015b828111156137095782518260006101000a81548173ffffffffffffffffffffffffffffffffffffffff021916908373ffffffffffffffffffffffffffffffffffffffff160217905550916020019190600101906136b1565b5b5090506137179190613797565b5090565b828054828255906000526020600020908101928215613757579160200282015b8281111561375657825182559160200191906001019061373b565b5b5090506137649190613797565b5090565b6040518060a0016040528060608152602001606081526020016000815260200160608152602001600081525090565b5b808211156137b0576000816000905550600101613798565b5090565b6000604051905090565b600080fd5b600080fd5b600073ffffffffffffffffffffffffffffffffffffffff82169050919050565b60006137f3826137c8565b9050919050565b613803816137e8565b811461380e57600080fd5b50565b600081359050613820816137fa565b92915050565b60006020828403121561383c5761383b6137be565b5b600061384a84828501613811565b91505092915050565b600081519050919050565b600082825260208201905092915050565b60005b8381101561388d578082015181840152602081019050613872565b60008484015250505050565b6000601f19601f8301169050919050565b60006138b582613853565b6138bf818561385e565b93506138cf81856020860161386f565b6138d881613899565b840191505092915050565b600060208201905081810360008301526138fd81846138aa565b905092915050565b6000819050919050565b61391881613905565b811461392357600080fd5b50565b6000813590506139358161390f565b92915050565b600060208284031215613951576139506137be565b5b600061395f84828501613926565b91505092915050565b61397181613905565b82525050565b600060208201905061398c6000830184613968565b92915050565b600080fd5b600080fd5b7f4e487b7100000000000000000000000000000000000000000000000000000000600052604160045260246000fd5b6139d482613899565b810181811067ffffffffffffffff821117156139f3576139f261399c565b5b80604052505050565b6000613a066137b4565b9050613a1282826139cb565b919050565b600067ffffffffffffffff821115613a3257613a3161399c565b5b613a3b82613899565b9050602081019050919050565b82818337600083830152505050565b6000613a6a613a6584613a17565b6139fc565b905082815260208101848484011115613a8657613a85613997565b5b613a91848285613a48565b509392505050565b600082601f830112613aae57613aad613992565b5b8135613abe848260208601613a57565b91505092915050565b600080600060608486031215613ae057613adf6137be565b5b6000613aee86828701613926565b9350506020613aff86828701613926565b925050604084013567ffffffffffffffff811115613b2057613b1f6137c3565b5b613b2c86828701613a99565b9150509250925092565b600081519050919050565b600082825260208201905092915050565b6000819050602082019050919050565b613b6b81613905565b82525050565b600082825260208201905092915050565b6000613b8d82613853565b613b978185613b71565b9350613ba781856020860161386f565b613bb081613899565b840191505092915050565b613bc4816137e8565b82525050565b600081519050919050565b600082825260208201905092915050565b6000819050602082019050919050565b6000613c028383613bbb565b60208301905092915050565b6000602082019050919050565b6000613c2682613bca565b613c308185613bd5565b9350613c3b83613be6565b8060005b83811015613c6c578151613c538882613bf6565b9750613c5e83613c0e565b925050600181019050613c3f565b5085935050505092915050565b600081519050919050565b600082825260208201905092915050565b6000819050602082019050919050565b6000613cb18383613b62565b60208301905092915050565b6000602082019050919050565b6000613cd582613c79565b613cdf8185613c84565b9350613cea83613c95565b8060005b83811015613d1b578151613d028882613ca5565b9750613d0d83613cbd565b925050600181019050613cee565b5085935050505092915050565b600061012083016000830151613d416000860182613b62565b5060208301518482036020860152613d598282613b82565b9150506040830151613d6e6040860182613b62565b506060830151613d816060860182613bbb565b506080830151613d946080860182613b62565b5060a0830151613da760a0860182613b62565b5060c083015184820360c0860152613dbf8282613c1b565b91505060e083015184820360e0860152613dd98282613c1b565b915050610100830151848203610100860152613df58282613cca565b9150508091505092915050565b6000613e0e8383613d28565b905092915050565b6000602082019050919050565b6000613e2e82613b36565b613e388185613b41565b935083602082028501613e4a85613b52565b8060005b85811015613e865784840389528151613e678582613e02565b9450613e7283613e16565b925060208a01995050600181019050613e4e565b50829750879550505050505092915050565b60006020820190508181036000830152613eb28184613e23565b905092915050565b60008115159050919050565b613ecf81613eba565b82525050565b6000602082019050613eea6000830184613ec6565b92915050565b600081519050919050565b600082825260208201905092915050565b6000819050602082019050919050565b600060a0830160008301518482036000860152613f398282613b82565b91505060208301518482036020860152613f538282613b82565b9150506040830151613f686040860182613b62565b5060608301518482036060860152613f808282613b82565b9150506080830151613f956080860182613b62565b508091505092915050565b6000613fac8383613f1c565b905092915050565b6000602082019050919050565b6000613fcc82613ef0565b613fd68185613efb565b935083602082028501613fe885613f0c565b8060005b8581101561402457848403895281516140058582613fa0565b945061401083613fb4565b925060208a01995050600181019050613fec565b50829750879550505050505092915050565b600060208201905081810360008301526140508184613fc1565b905092915050565b6000806040838503121561406f5761406e6137be565b5b600061407d85828601613926565b925050602061408e85828601613811565b9150509250929050565b600081519050919050565b600082825260208201905092915050565b6000819050602082019050919050565b60006060830160008301516140dc6000860182613bbb565b50602083015184820360208601526140f48282613b82565b9150506040830151848203604086015261410e8282613b82565b9150508091505092915050565b600061412783836140c4565b905092915050565b6000602082019050919050565b600061414782614098565b61415181856140a3565b935083602082028501614163856140b4565b8060005b8581101561419f5784840389528151614180858261411b565b945061418b8361412f565b925060208a01995050600181019050614167565b50829750879550505050505092915050565b600060208201905081810360008301526141cb818461413c565b905092915050565b6000602082840312156141e9576141e86137be565b5b600082013567ffffffffffffffff811115614207576142066137c3565b5b61421384828501613a99565b91505092915050565b600060a082019050818103600083015261423681886138aa565b9050818103602083015261424a81876138aa565b90506142596040830186613968565b818103606083015261426b81856138aa565b905061427a6080830184613968565b9695505050505050565b61428d816137e8565b82525050565b600060c0820190506142a86000830189613968565b81810360208301526142ba81886138aa565b90506142c96040830187613968565b6142d66060830186614284565b6142e36080830185613968565b6142f060a0830184613968565b979650505050505050565b60006060820190506143106000830186614284565b818103602083015261432281856138aa565b9050818103604083015261433681846138aa565b9050949350505050565b60008060408385031215614357576143566137be565b5b600083013567ffffffffffffffff811115614375576143746137c3565b5b61438185828601613a99565b925050602083013567ffffffffffffffff8111156143a2576143a16137c3565b5b6143ae85828601613a99565b9150509250929050565b7f4e487b7100000000000000000000000000000000000000000000000000000000600052602260045260246000fd5b600060028204905060018216806143ff57607f821691505b602082108103614412576144116143b8565b5b50919050565b7f4e487b7100000000000000000000000000000000000000000000000000000000600052603260045260246000fd5b7f596f7520617265206e6f7420612070617274696370616e74206f66207468652060008201527f7370656369666965642077616c6c657420696400000000000000000000000000602082015250565b60006144a360338361385e565b91506144ae82614447565b604082019050919050565b600060208201905081810360008301526144d281614496565b9050919050565b7f4e487b7100000000000000000000000000000000000000000000000000000000600052601260045260246000fd5b7f4e487b7100000000000000000000000000000000000000000000000000000000600052601160045260246000fd5b600061454282613905565b915061454d83613905565b92508261455d5761455c6144d9565b5b828204905092915050565b7f476f616c20616d6f756e74206d7573742062652067726561746572207468616e60008201527f2030000000000000000000000000000000000000000000000000000000000000602082015250565b60006145c460228361385e565b91506145cf82614568565b604082019050919050565b600060208201905081810360008301526145f3816145b7565b9050919050565b7f426f72726f77206c696d6974206d757374206265206e6f6e2d6e65676174697660008201527f6500000000000000000000000000000000000000000000000000000000000000602082015250565b600061465660218361385e565b9150614661826145fa565b604082019050919050565b6000602082019050818103600083015261468581614649565b9050919050565b600061469782613905565b91506146a283613905565b92508282026146b081613905565b915082820484148315176146c7576146c6614508565b5b5092915050565b60008190508160005260206000209050919050565b60006020601f8301049050919050565b600082821b905092915050565b6000600883026147307fffffffffffffffffffffffffffffffffffffffffffffffffffffffffffffffff826146f3565b61473a86836146f3565b95508019841693508086168417925050509392505050565b6000819050919050565b600061477761477261476d84613905565b614752565b613905565b9050919050565b6000819050919050565b6147918361475c565b6147a561479d8261477e565b848454614700565b825550505050565b600090565b6147ba6147ad565b6147c5818484614788565b505050565b5b818110156147e9576147de6000826147b2565b6001810190506147cb565b5050565b601f82111561482e576147ff816146ce565b614808846146e3565b81016020851015614817578190505b61482b614823856146e3565b8301826147ca565b50505b505050565b600082821c905092915050565b600061485160001984600802614833565b1980831691505092915050565b600061486a8383614840565b9150826002028217905092915050565b61488382613853565b67ffffffffffffffff81111561489c5761489b61399c565b5b6148a682546143e7565b6148b18282856147ed565b600060209050601f8311600181146148e457600084156148d2578287015190505b6148dc858261485e565b865550614944565b601f1984166148f2866146ce565b60005b8281101561491a578489015182556001820191506020850194506020810190506148f5565b868310156149375784890151614933601f891682614840565b8355505b6001600288020188555050505b505050505050565b600082825260208201905092915050565b600061496882613bca565b614972818561494c565b935061497d83613be6565b8060005b838110156149ae5781516149958882613bf6565b97506149a083613c0e565b925050600181019050614981565b5085935050505092915050565b60006060820190506149d06000830186613968565b6149dd6020830185613968565b81810360408301526149ef818461495d565b9050949350505050565b7f57616c6c6574207769746820676976656e20494420646f6573206e6f7420657860008201527f6973740000000000000000000000000000000000000000000000000000000000602082015250565b6000614a5560238361385e565b9150614a60826149f9565b604082019050919050565b60006020820190508181036000830152614a8481614a48565b9050919050565b6000614a9682613905565b91507fffffffffffffffffffffffffffffffffffffffffffffffffffffffffffffffff8203614ac857614ac7614508565b5b600182019050919050565b7f4f6e6c792061646d696e2063616e2072656a656374207061727469636970616e60008201527f7473000000000000000000000000000000000000000000000000000000000000602082015250565b6000614b2f60228361385e565b9150614b3a82614ad3565b604082019050919050565b60006020820190508181036000830152614b5e81614b22565b9050919050565b7f5061727469636970616e742072657175657374206e6f7420666f756e64000000600082015250565b6000614b9b601d8361385e565b9150614ba682614b65565b602082019050919050565b60006020820190508181036000830152614bca81614b8e565b9050919050565b7f416c72656164792061207061727469636970616e740000000000000000000000600082015250565b6000614c0760158361385e565b9150614c1282614bd1565b602082019050919050565b60006020820190508181036000830152614c3681614bfa565b9050919050565b7f5265717565737420616c7265616479207375626d697474656400000000000000600082015250565b6000614c7360198361385e565b9150614c7e82614c3d565b602082019050919050565b60006020820190508181036000830152614ca281614c66565b9050919050565b7f4f6e6c79207061727469636970616e74732063616e207769746864726177206660008201527f756e647300000000000000000000000000000000000000000000000000000000602082015250565b6000614d0560248361385e565b9150614d1082614ca9565b604082019050919050565b60006020820190508181036000830152614d3481614cf8565b9050919050565b7f5769746864726177616c20616d6f756e7420657863656564732074686520626f60008201527f72726f77206c696d697400000000000000000000000000000000000000000000602082015250565b6000614d97602a8361385e565b9150614da282614d3b565b604082019050919050565b60006020820190508181036000830152614dc681614d8a565b9050919050565b7f496e73756666696369656e742066756e647320696e207468652073686172656460008201527f2077616c6c657400000000000000000000000000000000000000000000000000602082015250565b6000614e2960278361385e565b9150614e3482614dcd565b604082019050919050565b60006020820190508181036000830152614e5881614e1c565b9050919050565b6000614e6a82613905565b9150614e7583613905565b9250828203905081811115614e8d57614e8c614508565b5b92915050565b6000614e9e82613905565b9150614ea983613905565b9250828201905080821115614ec157614ec0614508565b5b92915050565b600081905092915050565b60008154614edf816143e7565b614ee98186614ec7565b94506001821660008114614f045760018114614f1957614f4c565b60ff1983168652811515820286019350614f4c565b614f22856146ce565b60005b83811015614f4457815481890152600182019150602081019050614f25565b838801955050505b50505092915050565b6000614f618284614ed2565b915081905092915050565b7f4f6e6c792061646d696e2063616e20616363657074207061727469636970616e60008201527f7473000000000000000000000000000000000000000000000000000000000000602082015250565b6000614fc860228361385e565b9150614fd382614f6c565b604082019050919050565b60006020820190508181036000830152614ff781614fbb565b9050919050565b7f4f6e6c792061646d696e2063616e2072656d6f7665207061727469636970616e60008201527f7473000000000000000000000000000000000000000000000000000000000000602082015250565b600061505a60228361385e565b915061506582614ffe565b604082019050919050565b600060208201905081810360008301526150898161504d565b9050919050565b7f5061727469636970616e74206e6f7420666f756e640000000000000000000000600082015250565b60006150c660158361385e565b91506150d182615090565b602082019050919050565b600060208201905081810360008301526150f5816150b9565b9050919050565b7f557365726e616d6520616c726561647920657869737473212100000000000000600082015250565b600061513260198361385e565b915061513d826150fc565b602082019050919050565b6000602082019050818103600083015261516181615125565b9050919050565b7f557365726e616d6520697320616c72656164792074616b656e20627920616e6f60008201527f7468657220757365722100000000000000000000000000000000000000000000602082015250565b60006151c4602a8361385e565b91506151cf82615168565b604082019050919050565b600060208201905081810360008301526151f3816151b7565b9050919050565b7f4f6e6c79207061727469636970616e74732063616e206164642066756e647300600082015250565b6000615230601f8361385e565b915061523b826151fa565b602082019050919050565b6000602082019050818103600083015261525f81615223565b9050919050565b7f496e73756666696369656e742066756e64730000000000000000000000000000600082015250565b600061529c60128361385e565b91506152a782615266565b602082019050919050565b600060208201905081810360008301526152cb8161528f565b9050919050565b7f6368617269747920616c72656164792063726561746564000000000000000000600082015250565b600061530860178361385e565b9150615313826152d2565b602082019050919050565b60006020820190508181036000830152615337816152fb565b9050919050565b6000604082019050818103600083015261535881856138aa565b9050818103602083015261536c81846138aa565b90509392505050565b7f57616c6c6574206e6f7420666f756e6400000000000000000000000000000000600082015250565b60006153ab60108361385e565b91506153b682615375565b602082019050919050565b600060208201905081810360008301526153da8161539e565b9050919050565b6000819050919050565b6153fc6153f782613905565b6153e1565b82525050565b6000819050919050565b6000819050919050565b61542761542282615402565b61540c565b82525050565b600061543982866153eb565b60208201915061544982856153eb565b6020820191506154598284615416565b602082019150819050949350505050565b600061547582613905565b915061548083613905565b9250826154905761548f6144d9565b5b828206905092915050565b7f4e487b7100000000000000000000000000000000000000000000000000000000600052603160045260246000fd5b7f456c656d656e74206e6f7420666f756e6420696e206172726179000000000000600082015250565b6000615500601a8361385e565b915061550b826154ca565b602082019050919050565b6000602082019050818103600083015261552f816154f3565b9050919050565b600081905092915050565b60008190508160005260206000209050919050565b60008154615563816143e7565b61556d8186615536565b94506001821660008114615588576001811461559d576155d0565b60ff19831686528115158202860193506155d0565b6155a685615541565b60005b838110156155c8578154818901526001820191506020810190506155a9565b838801955050505b50505092915050565b60006155e58284615556565b91508190509291505056fea26469706673582212205b4738819a0d2630cba20efb69ff9455e8b3322bb063e49a411b04d7081e54c664736f6c63430008130033",
  "linkReferences": {},
  "deployedLinkReferences": {}
}